:020000040800F2
:1000000068060020550200085D0200085F02000833
:100010006102000863020008650200080000000099
:10002000000000000000000000000000670200085F
:1000300069020008000000006B0200086D02000861
:100040006F0200086F0200086F0200080000000045
:10005000000000006F0200086F0200086F02000835
:100060006F020008000000006F0200086F02000825
:100070006F020008000000006F0200086F02000815
:100080006F0200086F020008000000006F02000805
:100090006F020008000000000000000000000000E7
:1000A0000000000000000000000000006F020008D7
:1000B0006F0200086F0200086F0200086F0200085C
:1000C00000F002F800F03AF80AA090E8000C824430
:1000D0008344AAF10107DA4501D100F02FF8AFF20D
:1000E000090EBAE80F0013F0010F18BFFB1A43F016
:1000F00001031847080B0000280B0000103A24BF2A
:1001000078C878C1FAD8520724BF30C830C144BF7C
:1001100004680C60704700000023002400250026BE
:10012000103A28BF78C1FBD8520728BF30C148BF5A
:100130000B6070471FB51FBD10B510BD00F023FD4B
:100140001146FFF7F7FF00F071F800F041FD03B42E
:10015000FFF7F2FF03BC00F049FD00000EB50020E0
:100160008DF802008DF8080001208DF80A008DF846
:1001700009002020ADF800006946054800F008F9A4
:100180000EBD10B52021024800F0A9F910BD0000F5
:1001900000000C4010B500F034FA012000F044FAE1
:1001A00000F05EFA08B900BFFEE70421022000F06B
:1001B000D8FA012000F0F4FA00F0F5FA08B900BF0F
:1001C000FEE7012000F0E8FA4FF4807000F0B9F982
:1001D0000121C80500F0A8F90121080600F0A4F9E2
:1001E00010BD00000EB501208DF8020000208DF832
:1001F000080001208DF80A0003208DF80900042072
:10020000ADF800006946084800F0C2F80EBD10B510
:1002100004460CB1012000E00020024604210248FF
:1002200000F074F910BD000000800B400024FFF7BF
:10023000B1FFFFF7D7FFFFF791FF09E0FFF7A1FF3D
:1002400004460CB9012100E000210846FFF7DFFF5A
:10025000F4E700000948804709480047FEE7FEE749
:10026000FEE7FEE7FEE7FEE7FEE7FEE7FEE7FEE766
:1002700004480549054A064B70470000270300085B
:10028000C100000868000020680600206802002005
:100290006802002070B5334AD26802F00202022AD6
:1002A00001D1314800E031482E4AD26802F0010203
:1002B00002B1400801462B4AD26802F00402042A27
:1002C00005D1284A5268C2F30322541C6143254ACF
:1002D000D268C2F3012222B1012A06D0022A1BD120
:1002E00015E0224D224E35601BE01E4DED68C5F332
:1002F000031202F0080535B102F00702022595400D
:10030000B1FBF5F300E00B46194D2B6009E04FF40B
:100310000045174E356004E049F64045144E3560FF
:1003200000BF00BF70BD00B54FF00060114908600C
:1003300011480C49C8610846C0680020C8600846DA
:1003400040680020486008468068002088600846B1
:100350000069002008610846406900204861FFF7F5
:1003600099FF00BD000002400024F40000127A0052
:100370000000002008ED00E0100000080021C1602E
:10038000016141600160816041618161C1617047CB
:100390002DE9FE4F44688568C6680769D0F814C027
:1003A000D0F81880D0F81C90002201234FF0030AE7
:1003B000CDF804A04FF0011ACDF800A0B1F800A0CC
:1003C000CDF808A06CE0DDF808A00AF0010ABAF147
:1003D000000F51D024EA030A91F802B00BFA02FB95
:1003E0004AEA0B0491F808A04FEA420B0AFA0BFA0A
:1003F000DDF804B025EA0B0B4AEA0B0526EA030AEE
:1004000091F80AB00BFA02FB4AEA0B06DDF800A0ED
:1004100027EA0A0A91F803B002F1100E0BFA0EFB5C
:100420004AEA0B0A91F804B00BFA02FB4AEA0B07FE
:10043000DDF800B02CEA0B0A91F805B00BFA0EFBC0
:100440004AEA0B0A91F806B00BFA02FB4AEA0B0CD7
:1004500091F809A04FEA420B0AFA0BFADDF804B052
:1004600028EA0B0B4AEA0B0829EA030A91F807B0BD
:100470000BFA02FB4AEA0B095B00DDF804A04FEA25
:100480008A0ACDF804A0DDF800A04FEA4A0ACDF8A8
:1004900000A0521CDDF808A04FEA5A0ACDF808A0C7
:1004A000DDF808A0BAF1000F8DD144608560C66008
:1004B0000761C0F814C0C0F81880C0F81C90BDE8EF
:1004C000FE8F4FF6FF71018000218170C1700171B4
:1004D00041718171C171017241728172704702462E
:1004E00013680B400BB1012000E00020704701466B
:1004F0000868704702680A430260704702688A43CE
:100500000260704702688A430260704710B5036852
:100510001AB143EA0104046002E023EA0104046022
:1005200010BD01607047000029B1FE4AD269024344
:10053000FC4BDA6104E0FB4AD2698243F94BDA6191
:1005400070470146F74AD06820F440700843D060F5
:10055000704710B5014601F0E003202B02D1F14BAA
:100560001A6801E0F04BDA6B01F01F040123A3408D
:1005700013400BB1012000E0002010BD38B5002071
:10058000009000BF1720FFF7E4FF05460098401CCD
:1005900000900098B0F5C06F01D2002DF2D0172066
:1005A000FFF7D7FF08B1012400E00024204638BD42
:1005B0000021DE4A1060704700B50120FFF7F8FF08
:1005C000FFF7DCFF0020FFF7BCFFD648C068002023
:1005D000D449C860084640680020486008468068E2
:1005E00000208860084600690020086108464069CC
:1005F000002048610846806900208861CC48C861B5
:1006000000BD00B5FFF7D8FF0121C806FFF78CFF3A
:10061000C548C06B40F48100C349C8630846C06B3D
:1006200000F48100C86300BDBE49896821F0030160
:10063000BC4A9160012802D002280ED106E0B949D7
:10064000896841F00101B74A916007E0B5498968BE
:1006500041F00301B34A916000E000BF00BF704762
:1006600038B50020009000BF2220FFF772FF05463A
:100670000098401C00900098B0F5C06F01D2002D8A
:10068000F2D02220FFF765FF08B1012400E000242A
:10069000204638BDA449C96B21F00301A24AD163A9
:1006A000012802D002280ED106E09F49C96B41F013
:1006B00001019D4AD16307E09B49C96B41F00301E9
:1006C000994AD16300E000BF00BF704738B50020F1
:1006D000009000BF0D20FFF73CFF05460098401C2E
:1006E00000900098B0F5C06F01D2002DF2D00D201F
:1006F000FFF72FFF08B1012400E00024204638BD99
:100700000146894AD06B20F07C5040EA0160D063FA
:1007100070470021854A1C3A106070470146824AA2
:10072000D06B20F4F81040EA0140D063704738B530
:100730000020009000BF1520FFF70BFF0546009832
:10074000401C00900098B0F5C06F01D2002DF2D08F
:100750001520FFF7FEFE08B1012400E0002420462A
:1007600038BD10B502466F4BD86820F00300104327
:10077000D860586820F4706040EA012058606D4BE2
:100780001B6843B101236B4C241D23600023694C7B
:10079000883CC4F88C3010BD0021674A1060704757
:1007A00064490860704738B50020009000BF2120E0
:1007B000FFF7CFFE05460098401C00900098B0F56A
:1007C000C06F01D2002DF2D02120FFF7C2FE08B188
:1007D000012400E00024204638BD0146514AD0687B
:1007E00020F0F00040EA0110D060704710B50246DA
:1007F0004C4B186920F0030010431861586820F032
:10080000F00040EA011058604A4B083B1B6843B1B6
:100810000123484C241F23600023464C883CC4F825
:10082000843010BD0021444A80321060704700219E
:10083000404A083A1060704738B50020009000BF69
:100840002020FFF786FE05460098401C0090009887
:10085000B0F5C06F01D2002DF2D02020FFF779FE55
:1008600008B1012400E00024204638BD0021324AAE
:1008700088321060704700212F4A9832106070470C
:100880000146284A506920F0330008435061704700
:100890000146244A506920F4706040EA012050610A
:1008A00070470021254A1060704701461D4A906933
:1008B00020F0F00040EA01109061704700211F4ACB
:1008C0007032106070470146164A906920F00F00A0
:1008D0000843906170470021184A6C3210607047DD
:1008E0002DE9FC4F0146DFF83CB0DBF80CB00BF013
:1008F000020BBBF1000F01D0114B00E0114BDFF8F0
:1009000024B0DBF80CB00BF0010BBBF1000F00D0F2
:100910005B081C46DFF80CB0DBF80CB00BF0040BE6
:1009200012E000000000024000800D40D807B043F4
:10093000100000088800404288014042B402404252
:100940000024F40000127A00BBF1000F0DD0DFF894
:1009500024B2DBF804B0CBF3032B0BF1010BCDF881
:1009600000B0DDF800B004FB0BF4DFF808B2DBF8F0
:100970000CB0CBF3012BBBF1000F06D0BBF1010F84
:1009800008D0BBF1020F28D122E0DFF8ECB1C1F8AA
:1009900000B027E0DFF8DCB1DBF80CB04FF0080E58
:1009A0000EEA1B1BBBF1000F01D1A0460DE0DFF8E2
:1009B000C4B1DBF80CB0CBF3021B0BF1010B4FF011
:1009C000010E0EFA0BFEB4FBFEF8C1F8008009E040
:1009D0004FF4004BC1F800B004E049F6404BC1F8B9
:1009E00000B000BF00BFDFF88CB1DBF810B00BF037
:1009F000020BBBF1000F01D0604D00E05E4DDFF84F
:100A000074B1DBF810B00BF0010BBBF1000F00D09C
:100A10006D082F46DFF85CB1DBF810B00BF0040B6B
:100A2000BBF1000F0DD0DFF84CB1DBF804B0CBF315
:100A3000031B0BF1010BCDF800B0DDF800B007FB94
:100A40000BF7B946DFF82CB1DBF810B00BF0100B48
:100A5000BBF1000F01D04FEA5909C1F80490DFF84B
:100A600014B1DBF818B04FEA1B1000F0080BBBF113
:100A7000000F02D1DFF800C10BE000F0070B0BF113
:100A8000010B4FF0010E0EFA0BF0DFF8ECB0BBFBE0
:100A9000F0FCC1F80CC0DFF8DCB0DBF8180000F0A7
:100AA000080BBBF1000F04D1DFF8D0B0CDF804B0D3
:100AB0000DE000F0070B0BF1010B4FF0010E0EFAE9
:100AC0000BF0DFF8B8B0BBFBF0FBCDF804B0DDF8FD
:100AD00004B0C1F810B0DFF89CB0DBF814B00BF034
:100AE000030BBBF1000F06D0BBF1010F05D0BBF12A
:100AF000020F06D103E01E4605E02E4603E026461F
:100B000001E03E4600BF00BFDFF868B0DBF814B07C
:100B1000CBF3011BBBF1000F06D0BBF1010F06D0D8
:100B2000BBF1020F08D105E04FF4004206E049F6A0
:100B3000404203E0324601E0624600BF00BFDFF8FA
:100B400034B0DBF814B04FEA1B2000F0080BBBF107
:100B5000000F01D1924609E000F0070B0BF1010BE9
:100B60004FF0010E0EFA0BF0B2FBF0FAC1F808A03C
:100B7000BDE8FC8F0000024000127A000024F4005F
:100B8000704770477047754600F02CF8AE46050078
:100B90006946534620F00700854618B020B5FFF798
:100BA00067FBBDE820404FF000064FF000074FF014
:100BB00000084FF0000B21F00701AC46ACE8C0097B
:100BC000ACE8C009ACE8C009ACE8C0098D46704784
:100BD00010B50446AFF300802046BDE81040FFF793
:100BE000B6BA0000004870470400002001491820F0
:100BF000ABBEFEE726000200704700001C0C000898
:100C00000000002004000000FC000008200C000888
:100C100004000020640600001801000800127A0099
:04000005080000C12E
:00000001FF
